{
  "_format": "hh-sol-artifact-1",
  "contractName": "ArticleManager",
  "sourceName": "contracts/ArticleManager.sol",
  "abi": [
    {
      "anonymous": false,
      "inputs": [
        {
          "indexed": true,
          "internalType": "bytes32",
          "name": "titleHash",
          "type": "bytes32"
        },
        {
          "indexed": false,
          "internalType": "string",
          "name": "ipfsHash",
          "type": "string"
        },
        {
          "indexed": false,
          "internalType": "uint256",
          "name": "timestamp",
          "type": "uint256"
        },
        {
          "indexed": true,
          "internalType": "address",
          "name": "author",
          "type": "address"
        }
      ],
      "name": "ArticleAdded",
      "type": "event"
    },
    {
      "anonymous": false,
      "inputs": [
        {
          "indexed": true,
          "internalType": "bytes32",
          "name": "titleHash",
          "type": "bytes32"
        },
        {
          "indexed": false,
          "internalType": "string",
          "name": "reason",
          "type": "string"
        }
      ],
      "name": "ArticleDeleted",
      "type": "event"
    },
    {
      "anonymous": false,
      "inputs": [
        {
          "indexed": true,
          "internalType": "bytes32",
          "name": "titleHash",
          "type": "bytes32"
        },
        {
          "indexed": true,
          "internalType": "address",
          "name": "voter",
          "type": "address"
        },
        {
          "indexed": false,
          "internalType": "bool",
          "name": "liked",
          "type": "bool"
        }
      ],
      "name": "ArticleVoted",
      "type": "event"
    },
    {
      "inputs": [
        {
          "internalType": "string",
          "name": "_title",
          "type": "string"
        },
        {
          "internalType": "string",
          "name": "_ipfsHash",
          "type": "string"
        }
      ],
      "name": "addArticle",
      "outputs": [],
      "stateMutability": "nonpayable",
      "type": "function"
    },
    {
      "inputs": [
        {
          "internalType": "string",
          "name": "_title",
          "type": "string"
        }
      ],
      "name": "getArticle",
      "outputs": [
        {
          "internalType": "string",
          "name": "ipfsHash",
          "type": "string"
        },
        {
          "internalType": "uint256",
          "name": "timestamp",
          "type": "uint256"
        },
        {
          "internalType": "address",
          "name": "author",
          "type": "address"
        },
        {
          "internalType": "uint256",
          "name": "likes",
          "type": "uint256"
        },
        {
          "internalType": "uint256",
          "name": "dislikes",
          "type": "uint256"
        }
      ],
      "stateMutability": "view",
      "type": "function"
    },
    {
      "inputs": [
        {
          "internalType": "string",
          "name": "_title",
          "type": "string"
        },
        {
          "internalType": "address",
          "name": "user",
          "type": "address"
        }
      ],
      "name": "hasUserVoted",
      "outputs": [
        {
          "internalType": "bool",
          "name": "",
          "type": "bool"
        }
      ],
      "stateMutability": "view",
      "type": "function"
    },
    {
      "inputs": [
        {
          "internalType": "string",
          "name": "_title",
          "type": "string"
        },
        {
          "internalType": "bool",
          "name": "liked",
          "type": "bool"
        }
      ],
      "name": "voteArticle",
      "outputs": [],
      "stateMutability": "nonpayable",
      "type": "function"
    }
  ],
  "bytecode": "0x6080604052348015600f57600080fd5b506113578061001f6000396000f3fe608060405234801561001057600080fd5b506004361061004c5760003560e01c8063414973851461005157806345ac8608146100815780636ec67ec91461009d578063a4666665146100b9575b600080fd5b61006b60048036038101906100669190610a2f565b6100ed565b6040516100789190610aa6565b60405180910390f35b61009b60048036038101906100969190610aed565b6101e2565b005b6100b760048036038101906100b29190610b49565b610516565b005b6100d360048036038101906100ce9190610bc1565b610698565b6040516100e4959493929190610cb1565b60405180910390f35b600080836040516020016101019190610d47565b6040516020818303038152906040528051906020012090506001600082815260200190815260200160002060009054906101000a900460ff16610179576040517f08c379a000000000000000000000000000000000000000000000000000000000815260040161017090610daa565b60405180910390fd5b60008082815260200190815260200160002060050160008473ffffffffffffffffffffffffffffffffffffffff1673ffffffffffffffffffffffffffffffffffffffff16815260200190815260200160002060009054906101000a900460ff1691505092915050565b6000826040516020016101f59190610d47565b6040516020818303038152906040528051906020012090506001600082815260200190815260200160002060009054906101000a900460ff1661026d576040517f08c379a000000000000000000000000000000000000000000000000000000000815260040161026490610daa565b60405180910390fd5b600080600083815260200190815260200160002090508060050160003373ffffffffffffffffffffffffffffffffffffffff1673ffffffffffffffffffffffffffffffffffffffff16815260200190815260200160002060009054906101000a900460ff1615610312576040517f08c379a000000000000000000000000000000000000000000000000000000000815260040161030990610e16565b60405180910390fd5b60018160050160003373ffffffffffffffffffffffffffffffffffffffff1673ffffffffffffffffffffffffffffffffffffffff16815260200190815260200160002060006101000a81548160ff02191690831515021790555082156103935760018160030160008282546103879190610e65565b925050819055506103b0565b60018160040160008282546103a89190610e65565b925050819055505b3373ffffffffffffffffffffffffffffffffffffffff16827fa3bfe5aa286f9802d5ebf42c37dba45b742eb9dd8ef4deeb3f17cb5965f433a9856040516103f79190610aa6565b60405180910390a36000816004015482600301546104159190610e65565b90506000811180156104435750603381606484600401546104369190610e99565b6104409190610f0a565b10155b1561050f576000808481526020019081526020016000206000808201600061046b919061081a565b60018201600090556002820160006101000a81549073ffffffffffffffffffffffffffffffffffffffff021916905560038201600090556004820160009055505060006001600085815260200190815260200160002060006101000a81548160ff021916908315150217905550827faca0bfb3d9f5c8297d658bc1a47606309af865fa0c4bc1ab077a8d9b273847d660405161050690610f87565b60405180910390a25b5050505050565b6000826040516020016105299190610d47565b6040516020818303038152906040528051906020012090506001600082815260200190815260200160002060009054906101000a900460ff16156105a2576040517f08c379a000000000000000000000000000000000000000000000000000000000815260040161059990610ff3565b60405180910390fd5b60008060008381526020019081526020016000209050828160000190816105c9919061121f565b50428160010181905550338160020160006101000a81548173ffffffffffffffffffffffffffffffffffffffff021916908373ffffffffffffffffffffffffffffffffffffffff160217905550600180600084815260200190815260200160002060006101000a81548160ff0219169083151502179055503373ffffffffffffffffffffffffffffffffffffffff16827f100c5e62bba9c0d789bb4df022194609ebeb697be45d2cb2216a93b8fff0c22a854260405161068a9291906112f1565b60405180910390a350505050565b60606000806000806000866040516020016106b39190610d47565b6040516020818303038152906040528051906020012090506001600082815260200190815260200160002060009054906101000a900460ff1661072b576040517f08c379a000000000000000000000000000000000000000000000000000000000815260040161072290610daa565b60405180910390fd5b600080600083815260200190815260200160002090508060000181600101548260020160009054906101000a900473ffffffffffffffffffffffffffffffffffffffff168360030154846004015484805461078590611042565b80601f01602080910402602001604051908101604052809291908181526020018280546107b190611042565b80156107fe5780601f106107d3576101008083540402835291602001916107fe565b820191906000526020600020905b8154815290600101906020018083116107e157829003601f168201915b5050505050945096509650965096509650505091939590929450565b50805461082690611042565b6000825580601f106108385750610857565b601f016020900490600052602060002090810190610856919061085a565b5b50565b5b8082111561087357600081600090555060010161085b565b5090565b6000604051905090565b600080fd5b600080fd5b600080fd5b600080fd5b6000601f19601f8301169050919050565b7f4e487b7100000000000000000000000000000000000000000000000000000000600052604160045260246000fd5b6108de82610895565b810181811067ffffffffffffffff821117156108fd576108fc6108a6565b5b80604052505050565b6000610910610877565b905061091c82826108d5565b919050565b600067ffffffffffffffff82111561093c5761093b6108a6565b5b61094582610895565b9050602081019050919050565b82818337600083830152505050565b600061097461096f84610921565b610906565b9050828152602081018484840111156109905761098f610890565b5b61099b848285610952565b509392505050565b600082601f8301126109b8576109b761088b565b5b81356109c8848260208601610961565b91505092915050565b600073ffffffffffffffffffffffffffffffffffffffff82169050919050565b60006109fc826109d1565b9050919050565b610a0c816109f1565b8114610a1757600080fd5b50565b600081359050610a2981610a03565b92915050565b60008060408385031215610a4657610a45610881565b5b600083013567ffffffffffffffff811115610a6457610a63610886565b5b610a70858286016109a3565b9250506020610a8185828601610a1a565b9150509250929050565b60008115159050919050565b610aa081610a8b565b82525050565b6000602082019050610abb6000830184610a97565b92915050565b610aca81610a8b565b8114610ad557600080fd5b50565b600081359050610ae781610ac1565b92915050565b60008060408385031215610b0457610b03610881565b5b600083013567ffffffffffffffff811115610b2257610b21610886565b5b610b2e858286016109a3565b9250506020610b3f85828601610ad8565b9150509250929050565b60008060408385031215610b6057610b5f610881565b5b600083013567ffffffffffffffff811115610b7e57610b7d610886565b5b610b8a858286016109a3565b925050602083013567ffffffffffffffff811115610bab57610baa610886565b5b610bb7858286016109a3565b9150509250929050565b600060208284031215610bd757610bd6610881565b5b600082013567ffffffffffffffff811115610bf557610bf4610886565b5b610c01848285016109a3565b91505092915050565b600081519050919050565b600082825260208201905092915050565b60005b83811015610c44578082015181840152602081019050610c29565b60008484015250505050565b6000610c5b82610c0a565b610c658185610c15565b9350610c75818560208601610c26565b610c7e81610895565b840191505092915050565b6000819050919050565b610c9c81610c89565b82525050565b610cab816109f1565b82525050565b600060a0820190508181036000830152610ccb8188610c50565b9050610cda6020830187610c93565b610ce76040830186610ca2565b610cf46060830185610c93565b610d016080830184610c93565b9695505050505050565b600081905092915050565b6000610d2182610c0a565b610d2b8185610d0b565b9350610d3b818560208601610c26565b80840191505092915050565b6000610d538284610d16565b915081905092915050565b7f41727469636c6520646f6573206e6f7420657869737400000000000000000000600082015250565b6000610d94601683610c15565b9150610d9f82610d5e565b602082019050919050565b60006020820190508181036000830152610dc381610d87565b9050919050565b7f416c726561647920766f74656400000000000000000000000000000000000000600082015250565b6000610e00600d83610c15565b9150610e0b82610dca565b602082019050919050565b60006020820190508181036000830152610e2f81610df3565b9050919050565b7f4e487b7100000000000000000000000000000000000000000000000000000000600052601160045260246000fd5b6000610e7082610c89565b9150610e7b83610c89565b9250828201905080821115610e9357610e92610e36565b5b92915050565b6000610ea482610c89565b9150610eaf83610c89565b9250828202610ebd81610c89565b91508282048414831517610ed457610ed3610e36565b5b5092915050565b7f4e487b7100000000000000000000000000000000000000000000000000000000600052601260045260246000fd5b6000610f1582610c89565b9150610f2083610c89565b925082610f3057610f2f610edb565b5b828204905092915050565b7f4469736c696b6573207265616368656420353125206f72206d6f726500000000600082015250565b6000610f71601c83610c15565b9150610f7c82610f3b565b602082019050919050565b60006020820190508181036000830152610fa081610f64565b9050919050565b7f41727469636c6520616c72656164792065786973747300000000000000000000600082015250565b6000610fdd601683610c15565b9150610fe882610fa7565b602082019050919050565b6000602082019050818103600083015261100c81610fd0565b9050919050565b7f4e487b7100000000000000000000000000000000000000000000000000000000600052602260045260246000fd5b6000600282049050600182168061105a57607f821691505b60208210810361106d5761106c611013565b5b50919050565b60008190508160005260206000209050919050565b60006020601f8301049050919050565b600082821b905092915050565b6000600883026110d57fffffffffffffffffffffffffffffffffffffffffffffffffffffffffffffffff82611098565b6110df8683611098565b95508019841693508086168417925050509392505050565b6000819050919050565b600061111c61111761111284610c89565b6110f7565b610c89565b9050919050565b6000819050919050565b61113683611101565b61114a61114282611123565b8484546110a5565b825550505050565b600090565b61115f611152565b61116a81848461112d565b505050565b5b8181101561118e57611183600082611157565b600181019050611170565b5050565b601f8211156111d3576111a481611073565b6111ad84611088565b810160208510156111bc578190505b6111d06111c885611088565b83018261116f565b50505b505050565b600082821c905092915050565b60006111f6600019846008026111d8565b1980831691505092915050565b600061120f83836111e5565b9150826002028217905092915050565b61122882610c0a565b67ffffffffffffffff811115611241576112406108a6565b5b61124b8254611042565b611256828285611192565b600060209050601f8311600181146112895760008415611277578287015190505b6112818582611203565b8655506112e9565b601f19841661129786611073565b60005b828110156112bf5784890151825560018201915060208501945060208101905061129a565b868310156112dc57848901516112d8601f8916826111e5565b8355505b6001600288020188555050505b505050505050565b6000604082019050818103600083015261130b8185610c50565b905061131a6020830184610c93565b939250505056fea2646970667358221220ed261ad160b99e6bc617f951ac449a9d32cae212bbe456a0158e5b39efd553a564736f6c634300081c0033",
  "linkReferences": {},
  "deployedLinkReferences": {}
}